:100000000C942A000C9447000C94C8000C944700F0
:100010000C9447000C9447000C9447000C94470044
:100020000C9447000C9447000C9447000C94470034
:100030000C9447000C9447000C9447000C94470024
:100040000C9447000C9447000C9447000C94470014
:100050000C94470011241FBECFE5D8E0DEBFCDBF12
:1000600010E0A0E6B0E0E6E0F3E002C005900D92FB
:10007000A037B107D9F710E0A0E7B0E001C01D92AA
:10008000A337B107E1F70E94B8000C9481010C94EA
:100090000000382F8093720020E040E25EE4E22FFF
:1000A000F0E0E770F070E859FF4F808185BBCA012E
:1000B0000197F1F72F5F321790F715BA0895309135
:1000C000720020E040E25EE4E22FF0E0E770F070C2
:1000D000E05AFF4F808185BBCA010197F1F72F5F7E
:1000E000321790F715BA10927200089520E091E04F
:1000F00040E25EE4903109F491E095BBFA0131975A
:10010000F1F72F5F821710F0990FF4CF15BA089509
:100110006091720030E028E040E25EE4822F80953A
:1001200085BB222309F428E02695CA010197F1F73F
:100130003F5F631798F715BA08956AEF70E00E9461
:100140006D019B0140E050E064E670E009C084EC82
:1001500099E0FB013197F1F70197D9F74F5F5F4FB6
:1001600042175307A4F3089588E181BD11BC089597
:1001700080EF81BB8FEF84BB87BB1ABA1BBA18BA5A
:1001800015BA12BA8BB780688BBF15BE7894FFCFB3
:100190001F920F920FB60F9211242F933F934F93FC
:1001A0005F936F938F939F93EF93FF9329B3209364
:1001B0007000809171008038B1F41092710020932A
:1001C000720030E040E25EE4E32FF0E0E770F070B0
:1001D000E859FF4F808185BBCA010197F1F73F5F66
:1001E000231790F757C0203809F463C0213880F4F2
:1001F000223041F1233030F4222361F1213009F023
:100200005EC017C0233011F1243009F058C015C06A
:10021000283C09F441C0293C30F42138F9F0223857
:1002200009F04DC01FC0293CD9F12B3C09F047C053
:100230003BC0209371008FEA03C0209371008FE5CB
:1002400082BB3DC0209371008FEBFACF20937100E9
:100250008FEEF6CF109271008FEFF2CF20937100E6
:10026000C29A2DC08FEF82BB20937100C29860911B
:10027000720028E030E040E25EE4822F809585BB8A
:10028000222309F428E02695CA010197F1F73F5F80
:10029000631798F715BA13C020937100C09A0FC066
:1002A00020937100C19A0BC020937100C098C1982F
:1002B00006C08FEF82BB20937100849BFECFFF911D
:1002C000EF919F918F916F915F914F913F912F91FE
:1002D0000F900FBE0F901F901895AA1BBB1B51E1EA
:1002E00007C0AA1FBB1FA617B70710F0A61BB70BA6
:1002F000881F991F5A95A9F780959095BC01CD014B
:060300000895F894FFCF00
:10030600080901030206040C080C0406020301098D
:00000001FF
